{
  "_format": "hh-sol-artifact-1",
  "contractName": "BlockTuneNFT",
  "sourceName": "contracts/BLockTuneNFT.sol",
  "abi": [
    {
      "inputs": [],
      "stateMutability": "nonpayable",
      "type": "constructor"
    },
    {
      "anonymous": false,
      "inputs": [
        {
          "indexed": true,
          "internalType": "address",
          "name": "owner",
          "type": "address"
        },
        {
          "indexed": true,
          "internalType": "address",
          "name": "approved",
          "type": "address"
        },
        {
          "indexed": true,
          "internalType": "uint256",
          "name": "tokenId",
          "type": "uint256"
        }
      ],
      "name": "Approval",
      "type": "event"
    },
    {
      "anonymous": false,
      "inputs": [
        {
          "indexed": true,
          "internalType": "address",
          "name": "owner",
          "type": "address"
        },
        {
          "indexed": true,
          "internalType": "address",
          "name": "operator",
          "type": "address"
        },
        {
          "indexed": false,
          "internalType": "bool",
          "name": "approved",
          "type": "bool"
        }
      ],
      "name": "ApprovalForAll",
      "type": "event"
    },
    {
      "anonymous": false,
      "inputs": [
        {
          "indexed": true,
          "internalType": "address",
          "name": "by",
          "type": "address"
        },
        {
          "indexed": false,
          "internalType": "string",
          "name": "title",
          "type": "string"
        },
        {
          "indexed": false,
          "internalType": "uint256",
          "name": "id",
          "type": "uint256"
        }
      ],
      "name": "NFTMinted",
      "type": "event"
    },
    {
      "anonymous": false,
      "inputs": [
        {
          "indexed": true,
          "internalType": "address",
          "name": "previousOwner",
          "type": "address"
        },
        {
          "indexed": true,
          "internalType": "address",
          "name": "newOwner",
          "type": "address"
        }
      ],
      "name": "OwnershipTransferred",
      "type": "event"
    },
    {
      "anonymous": false,
      "inputs": [
        {
          "indexed": true,
          "internalType": "address",
          "name": "from",
          "type": "address"
        },
        {
          "indexed": true,
          "internalType": "address",
          "name": "to",
          "type": "address"
        },
        {
          "indexed": true,
          "internalType": "uint256",
          "name": "tokenId",
          "type": "uint256"
        }
      ],
      "name": "Transfer",
      "type": "event"
    },
    {
      "inputs": [
        {
          "internalType": "address",
          "name": "to",
          "type": "address"
        },
        {
          "internalType": "uint256",
          "name": "tokenId",
          "type": "uint256"
        }
      ],
      "name": "approve",
      "outputs": [],
      "stateMutability": "nonpayable",
      "type": "function"
    },
    {
      "inputs": [
        {
          "internalType": "address",
          "name": "owner",
          "type": "address"
        }
      ],
      "name": "balanceOf",
      "outputs": [
        {
          "internalType": "uint256",
          "name": "",
          "type": "uint256"
        }
      ],
      "stateMutability": "view",
      "type": "function"
    },
    {
      "inputs": [
        {
          "internalType": "uint256",
          "name": "tokenId",
          "type": "uint256"
        }
      ],
      "name": "getApproved",
      "outputs": [
        {
          "internalType": "address",
          "name": "",
          "type": "address"
        }
      ],
      "stateMutability": "view",
      "type": "function"
    },
    {
      "inputs": [
        {
          "internalType": "address",
          "name": "owner",
          "type": "address"
        },
        {
          "internalType": "address",
          "name": "operator",
          "type": "address"
        }
      ],
      "name": "isApprovedForAll",
      "outputs": [
        {
          "internalType": "bool",
          "name": "",
          "type": "bool"
        }
      ],
      "stateMutability": "view",
      "type": "function"
    },
    {
      "inputs": [
        {
          "internalType": "string",
          "name": "_title",
          "type": "string"
        },
        {
          "internalType": "string",
          "name": "tokenURI",
          "type": "string"
        }
      ],
      "name": "mintNewSongNFT",
      "outputs": [
        {
          "internalType": "uint256",
          "name": "",
          "type": "uint256"
        }
      ],
      "stateMutability": "nonpayable",
      "type": "function"
    },
    {
      "inputs": [],
      "name": "name",
      "outputs": [
        {
          "internalType": "string",
          "name": "",
          "type": "string"
        }
      ],
      "stateMutability": "view",
      "type": "function"
    },
    {
      "inputs": [],
      "name": "owner",
      "outputs": [
        {
          "internalType": "address",
          "name": "",
          "type": "address"
        }
      ],
      "stateMutability": "view",
      "type": "function"
    },
    {
      "inputs": [
        {
          "internalType": "uint256",
          "name": "tokenId",
          "type": "uint256"
        }
      ],
      "name": "ownerOf",
      "outputs": [
        {
          "internalType": "address",
          "name": "",
          "type": "address"
        }
      ],
      "stateMutability": "view",
      "type": "function"
    },
    {
      "inputs": [],
      "name": "renounceOwnership",
      "outputs": [],
      "stateMutability": "nonpayable",
      "type": "function"
    },
    {
      "inputs": [
        {
          "internalType": "address",
          "name": "from",
          "type": "address"
        },
        {
          "internalType": "address",
          "name": "to",
          "type": "address"
        },
        {
          "internalType": "uint256",
          "name": "tokenId",
          "type": "uint256"
        }
      ],
      "name": "safeTransferFrom",
      "outputs": [],
      "stateMutability": "nonpayable",
      "type": "function"
    },
    {
      "inputs": [
        {
          "internalType": "address",
          "name": "from",
          "type": "address"
        },
        {
          "internalType": "address",
          "name": "to",
          "type": "address"
        },
        {
          "internalType": "uint256",
          "name": "tokenId",
          "type": "uint256"
        },
        {
          "internalType": "bytes",
          "name": "data",
          "type": "bytes"
        }
      ],
      "name": "safeTransferFrom",
      "outputs": [],
      "stateMutability": "nonpayable",
      "type": "function"
    },
    {
      "inputs": [
        {
          "internalType": "address",
          "name": "operator",
          "type": "address"
        },
        {
          "internalType": "bool",
          "name": "approved",
          "type": "bool"
        }
      ],
      "name": "setApprovalForAll",
      "outputs": [],
      "stateMutability": "nonpayable",
      "type": "function"
    },
    {
      "inputs": [
        {
          "internalType": "uint256",
          "name": "",
          "type": "uint256"
        }
      ],
      "name": "songs",
      "outputs": [
        {
          "internalType": "address",
          "name": "composer",
          "type": "address"
        },
        {
          "internalType": "string",
          "name": "title",
          "type": "string"
        }
      ],
      "stateMutability": "view",
      "type": "function"
    },
    {
      "inputs": [
        {
          "internalType": "bytes4",
          "name": "interfaceId",
          "type": "bytes4"
        }
      ],
      "name": "supportsInterface",
      "outputs": [
        {
          "internalType": "bool",
          "name": "",
          "type": "bool"
        }
      ],
      "stateMutability": "view",
      "type": "function"
    },
    {
      "inputs": [],
      "name": "symbol",
      "outputs": [
        {
          "internalType": "string",
          "name": "",
          "type": "string"
        }
      ],
      "stateMutability": "view",
      "type": "function"
    },
    {
      "inputs": [
        {
          "internalType": "uint256",
          "name": "tokenId",
          "type": "uint256"
        }
      ],
      "name": "tokenURI",
      "outputs": [
        {
          "internalType": "string",
          "name": "",
          "type": "string"
        }
      ],
      "stateMutability": "view",
      "type": "function"
    },
    {
      "inputs": [
        {
          "internalType": "address",
          "name": "from",
          "type": "address"
        },
        {
          "internalType": "address",
          "name": "to",
          "type": "address"
        },
        {
          "internalType": "uint256",
          "name": "tokenId",
          "type": "uint256"
        }
      ],
      "name": "transferFrom",
      "outputs": [],
      "stateMutability": "nonpayable",
      "type": "function"
    },
    {
      "inputs": [
        {
          "internalType": "address",
          "name": "newOwner",
          "type": "address"
        }
      ],
      "name": "transferOwnership",
      "outputs": [],
      "stateMutability": "nonpayable",
      "type": "function"
    }
  ],
  "bytecode": "0x60806040523480156200001157600080fd5b506040518060400160405280600881526020017f54657374204e46540000000000000000000000000000000000000000000000008152506040518060400160405280600381526020017f54544e0000000000000000000000000000000000000000000000000000000000815250816000908051906020019062000096929190620001a6565b508060019080519060200190620000af929190620001a6565b505050620000d2620000c6620000d860201b60201c565b620000e060201b60201c565b620002bb565b600033905090565b6000600760009054906101000a900473ffffffffffffffffffffffffffffffffffffffff16905081600760006101000a81548173ffffffffffffffffffffffffffffffffffffffff021916908373ffffffffffffffffffffffffffffffffffffffff1602179055508173ffffffffffffffffffffffffffffffffffffffff168173ffffffffffffffffffffffffffffffffffffffff167f8be0079c531659141344cd1fd0a4f28419497f9722a3daafe3b4186f6b6457e060405160405180910390a35050565b828054620001b49062000256565b90600052602060002090601f016020900481019282620001d8576000855562000224565b82601f10620001f357805160ff191683800117855562000224565b8280016001018555821562000224579182015b828111156200022357825182559160200191906001019062000206565b5b50905062000233919062000237565b5090565b5b808211156200025257600081600090555060010162000238565b5090565b600060028204905060018216806200026f57607f821691505b602082108114156200028657620002856200028c565b5b50919050565b7f4e487b7100000000000000000000000000000000000000000000000000000000600052602260045260246000fd5b612e5780620002cb6000396000f3fe608060405234801561001057600080fd5b50600436106101165760003560e01c806370a08231116100a2578063a22cb46511610071578063a22cb465146102f4578063b88d4fde14610310578063c87b56dd1461032c578063e985e9c51461035c578063f2fde38b1461038c57610116565b806370a082311461027e578063715018a6146102ae5780638da5cb5b146102b857806395d89b41146102d657610116565b806312db300d116100e957806312db300d146101b557806323b872dd146101e5578063304cff301461020157806342842e0e146102325780636352211e1461024e57610116565b806301ffc9a71461011b57806306fdde031461014b578063081812fc14610169578063095ea7b314610199575b600080fd5b61013560048036038101906101309190611fa8565b6103a8565b6040516101429190612404565b60405180910390f35b61015361048a565b604051610160919061241f565b60405180910390f35b610183600480360381019061017e9190612066565b61051c565b604051610190919061236d565b60405180910390f35b6101b360048036038101906101ae9190611f6c565b610562565b005b6101cf60048036038101906101ca9190611ffa565b61067a565b6040516101dc9190612631565b60405180910390f35b6101ff60048036038101906101fa9190611e66565b6107af565b005b61021b60048036038101906102169190612066565b61080f565b6040516102299291906123d4565b60405180910390f35b61024c60048036038101906102479190611e66565b6108db565b005b61026860048036038101906102639190612066565b6108fb565b604051610275919061236d565b60405180910390f35b61029860048036038101906102939190611e01565b6109ad565b6040516102a59190612631565b60405180910390f35b6102b6610a65565b005b6102c0610a79565b6040516102cd919061236d565b60405180910390f35b6102de610aa3565b6040516102eb919061241f565b60405180910390f35b61030e60048036038101906103099190611f30565b610b35565b005b61032a60048036038101906103259190611eb5565b610b4b565b005b61034660048036038101906103419190612066565b610bad565b604051610353919061241f565b60405180910390f35b61037660048036038101906103719190611e2a565b610cc0565b6040516103839190612404565b60405180910390f35b6103a660048036038101906103a19190611e01565b610d54565b005b60007f80ac58cd000000000000000000000000000000000000000000000000000000007bffffffffffffffffffffffffffffffffffffffffffffffffffffffff1916827bffffffffffffffffffffffffffffffffffffffffffffffffffffffff1916148061047357507f5b5e139f000000000000000000000000000000000000000000000000000000007bffffffffffffffffffffffffffffffffffffffffffffffffffffffff1916827bffffffffffffffffffffffffffffffffffffffffffffffffffffffff1916145b80610483575061048282610dd8565b5b9050919050565b60606000805461049990612887565b80601f01602080910402602001604051908101604052809291908181526020018280546104c590612887565b80156105125780601f106104e757610100808354040283529160200191610512565b820191906000526020600020905b8154815290600101906020018083116104f557829003601f168201915b5050505050905090565b600061052782610e42565b6004600083815260200190815260200160002060009054906101000a900473ffffffffffffffffffffffffffffffffffffffff169050919050565b600061056d826108fb565b90508073ffffffffffffffffffffffffffffffffffffffff168373ffffffffffffffffffffffffffffffffffffffff1614156105de576040517f08c379a00000000000000000000000000000000000000000000000000000000081526004016105d5906125f1565b60405180910390fd5b8073ffffffffffffffffffffffffffffffffffffffff166105fd610e8d565b73ffffffffffffffffffffffffffffffffffffffff16148061062c575061062b81610626610e8d565b610cc0565b5b61066b576040517f08c379a000000000000000000000000000000000000000000000000000000000815260040161066290612571565b60405180910390fd5b6106758383610e95565b505050565b6000610684610f4e565b61068e6008610fcc565b600061069a6008610fe2565b90506106a63382610ff0565b6106b081846111ca565b60405180604001604052803373ffffffffffffffffffffffffffffffffffffffff168152602001858152506009600083815260200190815260200160002060008201518160000160006101000a81548173ffffffffffffffffffffffffffffffffffffffff021916908373ffffffffffffffffffffffffffffffffffffffff1602179055506020820151816001019080519060200190610751929190611c25565b509050503373ffffffffffffffffffffffffffffffffffffffff167fdcc4752ed7358bc90dff1a3e58f02c40de9bcecc15606f1378e29b94ce93c56f858360405161079d929190612441565b60405180910390a28091505092915050565b6107c06107ba610e8d565b8261123e565b6107ff576040517f08c379a00000000000000000000000000000000000000000000000000000000081526004016107f690612611565b60405180910390fd5b61080a8383836112d3565b505050565b60096020528060005260406000206000915090508060000160009054906101000a900473ffffffffffffffffffffffffffffffffffffffff169080600101805461085890612887565b80601f016020809104026020016040519081016040528092919081815260200182805461088490612887565b80156108d15780601f106108a6576101008083540402835291602001916108d1565b820191906000526020600020905b8154815290600101906020018083116108b457829003601f168201915b5050505050905082565b6108f683838360405180602001604052806000815250610b4b565b505050565b6000806002600084815260200190815260200160002060009054906101000a900473ffffffffffffffffffffffffffffffffffffffff169050600073ffffffffffffffffffffffffffffffffffffffff168173ffffffffffffffffffffffffffffffffffffffff1614156109a4576040517f08c379a000000000000000000000000000000000000000000000000000000000815260040161099b906125d1565b60405180910390fd5b80915050919050565b60008073ffffffffffffffffffffffffffffffffffffffff168273ffffffffffffffffffffffffffffffffffffffff161415610a1e576040517f08c379a0000000000000000000000000000000000000000000000000000000008152600401610a1590612531565b60405180910390fd5b600360008373ffffffffffffffffffffffffffffffffffffffff1673ffffffffffffffffffffffffffffffffffffffff168152602001908152602001600020549050919050565b610a6d610f4e565b610a77600061153a565b565b6000600760009054906101000a900473ffffffffffffffffffffffffffffffffffffffff16905090565b606060018054610ab290612887565b80601f0160208091040260200160405190810160405280929190818152602001828054610ade90612887565b8015610b2b5780601f10610b0057610100808354040283529160200191610b2b565b820191906000526020600020905b815481529060010190602001808311610b0e57829003601f168201915b5050505050905090565b610b47610b40610e8d565b8383611600565b5050565b610b5c610b56610e8d565b8361123e565b610b9b576040517f08c379a0000000000000000000000000000000000000000000000000000000008152600401610b9290612611565b60405180910390fd5b610ba78484848461176d565b50505050565b6060610bb882610e42565b6000600660008481526020019081526020016000208054610bd890612887565b80601f0160208091040260200160405190810160405280929190818152602001828054610c0490612887565b8015610c515780601f10610c2657610100808354040283529160200191610c51565b820191906000526020600020905b815481529060010190602001808311610c3457829003601f168201915b505050505090506000610c626117c9565b9050600081511415610c78578192505050610cbb565b600082511115610cad578082604051602001610c95929190612349565b60405160208183030381529060405292505050610cbb565b610cb6846117e0565b925050505b919050565b6000600560008473ffffffffffffffffffffffffffffffffffffffff1673ffffffffffffffffffffffffffffffffffffffff16815260200190815260200160002060008373ffffffffffffffffffffffffffffffffffffffff1673ffffffffffffffffffffffffffffffffffffffff16815260200190815260200160002060009054906101000a900460ff16905092915050565b610d5c610f4e565b600073ffffffffffffffffffffffffffffffffffffffff168173ffffffffffffffffffffffffffffffffffffffff161415610dcc576040517f08c379a0000000000000000000000000000000000000000000000000000000008152600401610dc390612491565b60405180910390fd5b610dd58161153a565b50565b60007f01ffc9a7000000000000000000000000000000000000000000000000000000007bffffffffffffffffffffffffffffffffffffffffffffffffffffffff1916827bffffffffffffffffffffffffffffffffffffffffffffffffffffffff1916149050919050565b610e4b81611848565b610e8a576040517f08c379a0000000000000000000000000000000000000000000000000000000008152600401610e81906125d1565b60405180910390fd5b50565b600033905090565b816004600083815260200190815260200160002060006101000a81548173ffffffffffffffffffffffffffffffffffffffff021916908373ffffffffffffffffffffffffffffffffffffffff160217905550808273ffffffffffffffffffffffffffffffffffffffff16610f08836108fb565b73ffffffffffffffffffffffffffffffffffffffff167f8c5be1e5ebec7d5bd14f71427d1e84f3dd0314c0f7b2291e5b200ac8c7c3b92560405160405180910390a45050565b610f56610e8d565b73ffffffffffffffffffffffffffffffffffffffff16610f74610a79565b73ffffffffffffffffffffffffffffffffffffffff1614610fca576040517f08c379a0000000000000000000000000000000000000000000000000000000008152600401610fc1906125b1565b60405180910390fd5b565b6001816000016000828254019250508190555050565b600081600001549050919050565b600073ffffffffffffffffffffffffffffffffffffffff168273ffffffffffffffffffffffffffffffffffffffff161415611060576040517f08c379a000000000000000000000000000000000000000000000000000000000815260040161105790612591565b60405180910390fd5b61106981611848565b156110a9576040517f08c379a00000000000000000000000000000000000000000000000000000000081526004016110a0906124d1565b60405180910390fd5b6110b5600083836118b4565b6001600360008473ffffffffffffffffffffffffffffffffffffffff1673ffffffffffffffffffffffffffffffffffffffff16815260200190815260200160002060008282546111059190612716565b92505081905550816002600083815260200190815260200160002060006101000a81548173ffffffffffffffffffffffffffffffffffffffff021916908373ffffffffffffffffffffffffffffffffffffffff160217905550808273ffffffffffffffffffffffffffffffffffffffff16600073ffffffffffffffffffffffffffffffffffffffff167fddf252ad1be2c89b69c2b068fc378daa952ba7f163c4a11628f55a4df523b3ef60405160405180910390a46111c6600083836118b9565b5050565b6111d382611848565b611212576040517f08c379a000000000000000000000000000000000000000000000000000000000815260040161120990612551565b60405180910390fd5b80600660008481526020019081526020016000209080519060200190611239929190611c25565b505050565b60008061124a836108fb565b90508073ffffffffffffffffffffffffffffffffffffffff168473ffffffffffffffffffffffffffffffffffffffff16148061128c575061128b8185610cc0565b5b806112ca57508373ffffffffffffffffffffffffffffffffffffffff166112b28461051c565b73ffffffffffffffffffffffffffffffffffffffff16145b91505092915050565b8273ffffffffffffffffffffffffffffffffffffffff166112f3826108fb565b73ffffffffffffffffffffffffffffffffffffffff1614611349576040517f08c379a0000000000000000000000000000000000000000000000000000000008152600401611340906124b1565b60405180910390fd5b600073ffffffffffffffffffffffffffffffffffffffff168273ffffffffffffffffffffffffffffffffffffffff1614156113b9576040517f08c379a00000000000000000000000000000000000000000000000000000000081526004016113b0906124f1565b60405180910390fd5b6113c48383836118b4565b6113cf600082610e95565b6001600360008573ffffffffffffffffffffffffffffffffffffffff1673ffffffffffffffffffffffffffffffffffffffff168152602001908152602001600020600082825461141f919061279d565b925050819055506001600360008473ffffffffffffffffffffffffffffffffffffffff1673ffffffffffffffffffffffffffffffffffffffff16815260200190815260200160002060008282546114769190612716565b92505081905550816002600083815260200190815260200160002060006101000a81548173ffffffffffffffffffffffffffffffffffffffff021916908373ffffffffffffffffffffffffffffffffffffffff160217905550808273ffffffffffffffffffffffffffffffffffffffff168473ffffffffffffffffffffffffffffffffffffffff167fddf252ad1be2c89b69c2b068fc378daa952ba7f163c4a11628f55a4df523b3ef60405160405180910390a46115358383836118b9565b505050565b6000600760009054906101000a900473ffffffffffffffffffffffffffffffffffffffff16905081600760006101000a81548173ffffffffffffffffffffffffffffffffffffffff021916908373ffffffffffffffffffffffffffffffffffffffff1602179055508173ffffffffffffffffffffffffffffffffffffffff168173ffffffffffffffffffffffffffffffffffffffff167f8be0079c531659141344cd1fd0a4f28419497f9722a3daafe3b4186f6b6457e060405160405180910390a35050565b8173ffffffffffffffffffffffffffffffffffffffff168373ffffffffffffffffffffffffffffffffffffffff16141561166f576040517f08c379a000000000000000000000000000000000000000000000000000000000815260040161166690612511565b60405180910390fd5b80600560008573ffffffffffffffffffffffffffffffffffffffff1673ffffffffffffffffffffffffffffffffffffffff16815260200190815260200160002060008473ffffffffffffffffffffffffffffffffffffffff1673ffffffffffffffffffffffffffffffffffffffff16815260200190815260200160002060006101000a81548160ff0219169083151502179055508173ffffffffffffffffffffffffffffffffffffffff168373ffffffffffffffffffffffffffffffffffffffff167f17307eab39ab6107e8899845ad3d59bd9653f200f220920489ca2b5937696c31836040516117609190612404565b60405180910390a3505050565b6117788484846112d3565b611784848484846118be565b6117c3576040517f08c379a00000000000000000000000000000000000000000000000000000000081526004016117ba90612471565b60405180910390fd5b50505050565b606060405180602001604052806000815250905090565b60606117eb82610e42565b60006117f56117c9565b905060008151116118155760405180602001604052806000815250611840565b8061181f84611a55565b604051602001611830929190612349565b6040516020818303038152906040525b915050919050565b60008073ffffffffffffffffffffffffffffffffffffffff166002600084815260200190815260200160002060009054906101000a900473ffffffffffffffffffffffffffffffffffffffff1673ffffffffffffffffffffffffffffffffffffffff1614159050919050565b505050565b505050565b60006118df8473ffffffffffffffffffffffffffffffffffffffff16611c02565b15611a48578373ffffffffffffffffffffffffffffffffffffffff1663150b7a02611908610e8d565b8786866040518563ffffffff1660e01b815260040161192a9493929190612388565b602060405180830381600087803b15801561194457600080fd5b505af192505050801561197557506040513d601f19601f820116820180604052508101906119729190611fd1565b60015b6119f8573d80600081146119a5576040519150601f19603f3d011682016040523d82523d6000602084013e6119aa565b606091505b506000815114156119f0576040517f08c379a00000000000000000000000000000000000000000000000000000000081526004016119e790612471565b60405180910390fd5b805181602001fd5b63150b7a0260e01b7bffffffffffffffffffffffffffffffffffffffffffffffffffffffff1916817bffffffffffffffffffffffffffffffffffffffffffffffffffffffff191614915050611a4d565b600190505b949350505050565b60606000821415611a9d576040518060400160405280600181526020017f30000000000000000000000000000000000000000000000000000000000000008152509050611bfd565b600082905060005b60008214611acf578080611ab8906128ea565b915050600a82611ac8919061276c565b9150611aa5565b60008167ffffffffffffffff811115611b11577f4e487b7100000000000000000000000000000000000000000000000000000000600052604160045260246000fd5b6040519080825280601f01601f191660200182016040528015611b435781602001600182028036833780820191505090505b5090505b60008514611bf657600182611b5c919061279d565b9150600a85611b6b9190612933565b6030611b779190612716565b60f81b818381518110611bb3577f4e487b7100000000000000000000000000000000000000000000000000000000600052603260045260246000fd5b60200101907effffffffffffffffffffffffffffffffffffffffffffffffffffffffffffff1916908160001a905350600a85611bef919061276c565b9450611b47565b8093505050505b919050565b6000808273ffffffffffffffffffffffffffffffffffffffff163b119050919050565b828054611c3190612887565b90600052602060002090601f016020900481019282611c535760008555611c9a565b82601f10611c6c57805160ff1916838001178555611c9a565b82800160010185558215611c9a579182015b82811115611c99578251825591602001919060010190611c7e565b5b509050611ca79190611cab565b5090565b5b80821115611cc4576000816000905550600101611cac565b5090565b6000611cdb611cd684612671565b61264c565b905082815260208101848484011115611cf357600080fd5b611cfe848285612845565b509392505050565b6000611d19611d14846126a2565b61264c565b905082815260208101848484011115611d3157600080fd5b611d3c848285612845565b509392505050565b600081359050611d5381612dc5565b92915050565b600081359050611d6881612ddc565b92915050565b600081359050611d7d81612df3565b92915050565b600081519050611d9281612df3565b92915050565b600082601f830112611da957600080fd5b8135611db9848260208601611cc8565b91505092915050565b600082601f830112611dd357600080fd5b8135611de3848260208601611d06565b91505092915050565b600081359050611dfb81612e0a565b92915050565b600060208284031215611e1357600080fd5b6000611e2184828501611d44565b91505092915050565b60008060408385031215611e3d57600080fd5b6000611e4b85828601611d44565b9250506020611e5c85828601611d44565b9150509250929050565b600080600060608486031215611e7b57600080fd5b6000611e8986828701611d44565b9350506020611e9a86828701611d44565b9250506040611eab86828701611dec565b9150509250925092565b60008060008060808587031215611ecb57600080fd5b6000611ed987828801611d44565b9450506020611eea87828801611d44565b9350506040611efb87828801611dec565b925050606085013567ffffffffffffffff811115611f1857600080fd5b611f2487828801611d98565b91505092959194509250565b60008060408385031215611f4357600080fd5b6000611f5185828601611d44565b9250506020611f6285828601611d59565b9150509250929050565b60008060408385031215611f7f57600080fd5b6000611f8d85828601611d44565b9250506020611f9e85828601611dec565b9150509250929050565b600060208284031215611fba57600080fd5b6000611fc884828501611d6e565b91505092915050565b600060208284031215611fe357600080fd5b6000611ff184828501611d83565b91505092915050565b6000806040838503121561200d57600080fd5b600083013567ffffffffffffffff81111561202757600080fd5b61203385828601611dc2565b925050602083013567ffffffffffffffff81111561205057600080fd5b61205c85828601611dc2565b9150509250929050565b60006020828403121561207857600080fd5b600061208684828501611dec565b91505092915050565b612098816127d1565b82525050565b6120a7816127e3565b82525050565b60006120b8826126d3565b6120c281856126e9565b93506120d2818560208601612854565b6120db81612a20565b840191505092915050565b60006120f1826126de565b6120fb81856126fa565b935061210b818560208601612854565b61211481612a20565b840191505092915050565b600061212a826126de565b612134818561270b565b9350612144818560208601612854565b80840191505092915050565b600061215d6032836126fa565b915061216882612a31565b604082019050919050565b60006121806026836126fa565b915061218b82612a80565b604082019050919050565b60006121a36025836126fa565b91506121ae82612acf565b604082019050919050565b60006121c6601c836126fa565b91506121d182612b1e565b602082019050919050565b60006121e96024836126fa565b91506121f482612b47565b604082019050919050565b600061220c6019836126fa565b915061221782612b96565b602082019050919050565b600061222f6029836126fa565b915061223a82612bbf565b604082019050919050565b6000612252602e836126fa565b915061225d82612c0e565b604082019050919050565b6000612275603e836126fa565b915061228082612c5d565b604082019050919050565b60006122986020836126fa565b91506122a382612cac565b602082019050919050565b60006122bb6020836126fa565b91506122c682612cd5565b602082019050919050565b60006122de6018836126fa565b91506122e982612cfe565b602082019050919050565b60006123016021836126fa565b915061230c82612d27565b604082019050919050565b6000612324602e836126fa565b915061232f82612d76565b604082019050919050565b6123438161283b565b82525050565b6000612355828561211f565b9150612361828461211f565b91508190509392505050565b6000602082019050612382600083018461208f565b92915050565b600060808201905061239d600083018761208f565b6123aa602083018661208f565b6123b7604083018561233a565b81810360608301526123c981846120ad565b905095945050505050565b60006040820190506123e9600083018561208f565b81810360208301526123fb81846120e6565b90509392505050565b6000602082019050612419600083018461209e565b92915050565b6000602082019050818103600083015261243981846120e6565b905092915050565b6000604082019050818103600083015261245b81856120e6565b905061246a602083018461233a565b9392505050565b6000602082019050818103600083015261248a81612150565b9050919050565b600060208201905081810360008301526124aa81612173565b9050919050565b600060208201905081810360008301526124ca81612196565b9050919050565b600060208201905081810360008301526124ea816121b9565b9050919050565b6000602082019050818103600083015261250a816121dc565b9050919050565b6000602082019050818103600083015261252a816121ff565b9050919050565b6000602082019050818103600083015261254a81612222565b9050919050565b6000602082019050818103600083015261256a81612245565b9050919050565b6000602082019050818103600083015261258a81612268565b9050919050565b600060208201905081810360008301526125aa8161228b565b9050919050565b600060208201905081810360008301526125ca816122ae565b9050919050565b600060208201905081810360008301526125ea816122d1565b9050919050565b6000602082019050818103600083015261260a816122f4565b9050919050565b6000602082019050818103600083015261262a81612317565b9050919050565b6000602082019050612646600083018461233a565b92915050565b6000612656612667565b905061266282826128b9565b919050565b6000604051905090565b600067ffffffffffffffff82111561268c5761268b6129f1565b5b61269582612a20565b9050602081019050919050565b600067ffffffffffffffff8211156126bd576126bc6129f1565b5b6126c682612a20565b9050602081019050919050565b600081519050919050565b600081519050919050565b600082825260208201905092915050565b600082825260208201905092915050565b600081905092915050565b60006127218261283b565b915061272c8361283b565b9250827fffffffffffffffffffffffffffffffffffffffffffffffffffffffffffffffff0382111561276157612760612964565b5b828201905092915050565b60006127778261283b565b91506127828361283b565b92508261279257612791612993565b5b828204905092915050565b60006127a88261283b565b91506127b38361283b565b9250828210156127c6576127c5612964565b5b828203905092915050565b60006127dc8261281b565b9050919050565b60008115159050919050565b60007fffffffff0000000000000000000000000000000000000000000000000000000082169050919050565b600073ffffffffffffffffffffffffffffffffffffffff82169050919050565b6000819050919050565b82818337600083830152505050565b60005b83811015612872578082015181840152602081019050612857565b83811115612881576000848401525b50505050565b6000600282049050600182168061289f57607f821691505b602082108114156128b3576128b26129c2565b5b50919050565b6128c282612a20565b810181811067ffffffffffffffff821117156128e1576128e06129f1565b5b80604052505050565b60006128f58261283b565b91507fffffffffffffffffffffffffffffffffffffffffffffffffffffffffffffffff82141561292857612927612964565b5b600182019050919050565b600061293e8261283b565b91506129498361283b565b92508261295957612958612993565b5b828206905092915050565b7f4e487b7100000000000000000000000000000000000000000000000000000000600052601160045260246000fd5b7f4e487b7100000000000000000000000000000000000000000000000000000000600052601260045260246000fd5b7f4e487b7100000000000000000000000000000000000000000000000000000000600052602260045260246000fd5b7f4e487b7100000000000000000000000000000000000000000000000000000000600052604160045260246000fd5b6000601f19601f8301169050919050565b7f4552433732313a207472616e7366657220746f206e6f6e20455243373231526560008201527f63656976657220696d706c656d656e7465720000000000000000000000000000602082015250565b7f4f776e61626c653a206e6577206f776e657220697320746865207a65726f206160008201527f6464726573730000000000000000000000000000000000000000000000000000602082015250565b7f4552433732313a207472616e736665722066726f6d20696e636f72726563742060008201527f6f776e6572000000000000000000000000000000000000000000000000000000602082015250565b7f4552433732313a20746f6b656e20616c7265616479206d696e74656400000000600082015250565b7f4552433732313a207472616e7366657220746f20746865207a65726f2061646460008201527f7265737300000000000000000000000000000000000000000000000000000000602082015250565b7f4552433732313a20617070726f766520746f2063616c6c657200000000000000600082015250565b7f4552433732313a2061646472657373207a65726f206973206e6f74206120766160008201527f6c6964206f776e65720000000000000000000000000000000000000000000000602082015250565b7f45524337323155524953746f726167653a2055524920736574206f66206e6f6e60008201527f6578697374656e7420746f6b656e000000000000000000000000000000000000602082015250565b7f4552433732313a20617070726f76652063616c6c6572206973206e6f7420746f60008201527f6b656e206f776e6572206e6f7220617070726f76656420666f7220616c6c0000602082015250565b7f4552433732313a206d696e7420746f20746865207a65726f2061646472657373600082015250565b7f4f776e61626c653a2063616c6c6572206973206e6f7420746865206f776e6572600082015250565b7f4552433732313a20696e76616c696420746f6b656e2049440000000000000000600082015250565b7f4552433732313a20617070726f76616c20746f2063757272656e74206f776e6560008201527f7200000000000000000000000000000000000000000000000000000000000000602082015250565b7f4552433732313a2063616c6c6572206973206e6f7420746f6b656e206f776e6560008201527f72206e6f7220617070726f766564000000000000000000000000000000000000602082015250565b612dce816127d1565b8114612dd957600080fd5b50565b612de5816127e3565b8114612df057600080fd5b50565b612dfc816127ef565b8114612e0757600080fd5b50565b612e138161283b565b8114612e1e57600080fd5b5056fea2646970667358221220a6cd6271ead72c9065b2fbba16b904e10ca338fd9f821fc7fe469fda041198d964736f6c63430008010033",
  "linkReferences": {},
  "deployedLinkReferences": {}
}