{
  "_format": "hh-sol-artifact-1",
  "contractName": "TokenVendor",
  "sourceName": "contracts/TokenVendor.sol",
  "abi": [
    {
      "inputs": [],
      "stateMutability": "nonpayable",
      "type": "constructor"
    },
    {
      "anonymous": false,
      "inputs": [
        {
          "indexed": true,
          "internalType": "address",
          "name": "owner",
          "type": "address"
        },
        {
          "indexed": true,
          "internalType": "address",
          "name": "spender",
          "type": "address"
        },
        {
          "indexed": false,
          "internalType": "uint256",
          "name": "value",
          "type": "uint256"
        }
      ],
      "name": "Approval",
      "type": "event"
    },
    {
      "anonymous": false,
      "inputs": [
        {
          "indexed": false,
          "internalType": "address",
          "name": "buyer",
          "type": "address"
        },
        {
          "indexed": false,
          "internalType": "uint256",
          "name": "amountOfETH",
          "type": "uint256"
        },
        {
          "indexed": false,
          "internalType": "uint256",
          "name": "amountOfTokens",
          "type": "uint256"
        }
      ],
      "name": "BuyTokens",
      "type": "event"
    },
    {
      "anonymous": false,
      "inputs": [
        {
          "indexed": false,
          "internalType": "address",
          "name": "sender",
          "type": "address"
        },
        {
          "indexed": false,
          "internalType": "uint256",
          "name": "amount",
          "type": "uint256"
        }
      ],
      "name": "PaymentReceived",
      "type": "event"
    },
    {
      "anonymous": false,
      "inputs": [
        {
          "indexed": true,
          "internalType": "address",
          "name": "from",
          "type": "address"
        },
        {
          "indexed": true,
          "internalType": "address",
          "name": "to",
          "type": "address"
        },
        {
          "indexed": false,
          "internalType": "uint256",
          "name": "value",
          "type": "uint256"
        }
      ],
      "name": "Transfer",
      "type": "event"
    },
    {
      "inputs": [],
      "name": "admin",
      "outputs": [
        {
          "internalType": "address",
          "name": "",
          "type": "address"
        }
      ],
      "stateMutability": "view",
      "type": "function"
    },
    {
      "inputs": [
        {
          "internalType": "address",
          "name": "owner",
          "type": "address"
        },
        {
          "internalType": "address",
          "name": "spender",
          "type": "address"
        }
      ],
      "name": "allowance",
      "outputs": [
        {
          "internalType": "uint256",
          "name": "",
          "type": "uint256"
        }
      ],
      "stateMutability": "view",
      "type": "function"
    },
    {
      "inputs": [
        {
          "internalType": "address",
          "name": "spender",
          "type": "address"
        },
        {
          "internalType": "uint256",
          "name": "amount",
          "type": "uint256"
        }
      ],
      "name": "approve",
      "outputs": [
        {
          "internalType": "bool",
          "name": "",
          "type": "bool"
        }
      ],
      "stateMutability": "nonpayable",
      "type": "function"
    },
    {
      "inputs": [
        {
          "internalType": "address",
          "name": "account",
          "type": "address"
        }
      ],
      "name": "balanceOf",
      "outputs": [
        {
          "internalType": "uint256",
          "name": "",
          "type": "uint256"
        }
      ],
      "stateMutability": "view",
      "type": "function"
    },
    {
      "inputs": [
        {
          "internalType": "uint256",
          "name": "amount",
          "type": "uint256"
        }
      ],
      "name": "burn",
      "outputs": [],
      "stateMutability": "nonpayable",
      "type": "function"
    },
    {
      "inputs": [],
      "name": "buyer",
      "outputs": [
        {
          "internalType": "address",
          "name": "",
          "type": "address"
        }
      ],
      "stateMutability": "view",
      "type": "function"
    },
    {
      "inputs": [],
      "name": "decimals",
      "outputs": [
        {
          "internalType": "uint8",
          "name": "",
          "type": "uint8"
        }
      ],
      "stateMutability": "view",
      "type": "function"
    },
    {
      "inputs": [
        {
          "internalType": "address",
          "name": "spender",
          "type": "address"
        },
        {
          "internalType": "uint256",
          "name": "subtractedValue",
          "type": "uint256"
        }
      ],
      "name": "decreaseAllowance",
      "outputs": [
        {
          "internalType": "bool",
          "name": "",
          "type": "bool"
        }
      ],
      "stateMutability": "nonpayable",
      "type": "function"
    },
    {
      "inputs": [],
      "name": "getBalance",
      "outputs": [
        {
          "internalType": "uint256",
          "name": "",
          "type": "uint256"
        }
      ],
      "stateMutability": "view",
      "type": "function"
    },
    {
      "inputs": [
        {
          "internalType": "address",
          "name": "spender",
          "type": "address"
        },
        {
          "internalType": "uint256",
          "name": "addedValue",
          "type": "uint256"
        }
      ],
      "name": "increaseAllowance",
      "outputs": [
        {
          "internalType": "bool",
          "name": "",
          "type": "bool"
        }
      ],
      "stateMutability": "nonpayable",
      "type": "function"
    },
    {
      "inputs": [
        {
          "internalType": "address",
          "name": "to",
          "type": "address"
        },
        {
          "internalType": "uint256",
          "name": "amount",
          "type": "uint256"
        }
      ],
      "name": "mintToken",
      "outputs": [],
      "stateMutability": "nonpayable",
      "type": "function"
    },
    {
      "inputs": [],
      "name": "name",
      "outputs": [
        {
          "internalType": "string",
          "name": "",
          "type": "string"
        }
      ],
      "stateMutability": "view",
      "type": "function"
    },
    {
      "inputs": [],
      "name": "owner",
      "outputs": [
        {
          "internalType": "address",
          "name": "",
          "type": "address"
        }
      ],
      "stateMutability": "view",
      "type": "function"
    },
    {
      "inputs": [
        {
          "internalType": "address payable",
          "name": "_owner",
          "type": "address"
        }
      ],
      "name": "payForToken",
      "outputs": [],
      "stateMutability": "payable",
      "type": "function"
    },
    {
      "inputs": [
        {
          "internalType": "address",
          "name": "_buyer",
          "type": "address"
        }
      ],
      "name": "sellTokens",
      "outputs": [
        {
          "internalType": "uint256",
          "name": "tokenAmount",
          "type": "uint256"
        }
      ],
      "stateMutability": "payable",
      "type": "function"
    },
    {
      "inputs": [],
      "name": "symbol",
      "outputs": [
        {
          "internalType": "string",
          "name": "",
          "type": "string"
        }
      ],
      "stateMutability": "view",
      "type": "function"
    },
    {
      "inputs": [],
      "name": "tokenPrice",
      "outputs": [
        {
          "internalType": "uint256",
          "name": "",
          "type": "uint256"
        }
      ],
      "stateMutability": "view",
      "type": "function"
    },
    {
      "inputs": [],
      "name": "totalSupply",
      "outputs": [
        {
          "internalType": "uint256",
          "name": "",
          "type": "uint256"
        }
      ],
      "stateMutability": "view",
      "type": "function"
    },
    {
      "inputs": [
        {
          "internalType": "address",
          "name": "to",
          "type": "address"
        },
        {
          "internalType": "uint256",
          "name": "amount",
          "type": "uint256"
        }
      ],
      "name": "transfer",
      "outputs": [
        {
          "internalType": "bool",
          "name": "",
          "type": "bool"
        }
      ],
      "stateMutability": "nonpayable",
      "type": "function"
    },
    {
      "inputs": [
        {
          "internalType": "address",
          "name": "from",
          "type": "address"
        },
        {
          "internalType": "address",
          "name": "to",
          "type": "address"
        },
        {
          "internalType": "uint256",
          "name": "amount",
          "type": "uint256"
        }
      ],
      "name": "transferFrom",
      "outputs": [
        {
          "internalType": "bool",
          "name": "",
          "type": "bool"
        }
      ],
      "stateMutability": "nonpayable",
      "type": "function"
    }
  ],
  "bytecode": "0x608060405266038d7ea4c680006009553480156200001c57600080fd5b506040518060400160405280600a81526020017f5465737420546f6b656e000000000000000000000000000000000000000000008152506040518060400160405280600381526020017f54544e00000000000000000000000000000000000000000000000000000000008152508160039080519060200190620000a1929190620002e4565b508060049080519060200190620000ba929190620002e4565b505050620000d93369152d02c7e14af68000006200016160201b60201c565b33600560006101000a81548173ffffffffffffffffffffffffffffffffffffffff021916908373ffffffffffffffffffffffffffffffffffffffff16021790555033600760006101000a81548173ffffffffffffffffffffffffffffffffffffffff021916908373ffffffffffffffffffffffffffffffffffffffff16021790555062000540565b600073ffffffffffffffffffffffffffffffffffffffff168273ffffffffffffffffffffffffffffffffffffffff161415620001d4576040517f08c379a0000000000000000000000000000000000000000000000000000000008152600401620001cb90620003cc565b60405180910390fd5b620001e860008383620002da60201b60201c565b8060026000828254620001fc91906200041c565b92505081905550806000808473ffffffffffffffffffffffffffffffffffffffff1673ffffffffffffffffffffffffffffffffffffffff16815260200190815260200160002060008282546200025391906200041c565b925050819055508173ffffffffffffffffffffffffffffffffffffffff16600073ffffffffffffffffffffffffffffffffffffffff167fddf252ad1be2c89b69c2b068fc378daa952ba7f163c4a11628f55a4df523b3ef83604051620002ba9190620003ee565b60405180910390a3620002d660008383620002df60201b60201c565b5050565b505050565b505050565b828054620002f29062000483565b90600052602060002090601f01602090048101928262000316576000855562000362565b82601f106200033157805160ff191683800117855562000362565b8280016001018555821562000362579182015b828111156200036157825182559160200191906001019062000344565b5b50905062000371919062000375565b5090565b5b808211156200039057600081600090555060010162000376565b5090565b6000620003a3601f836200040b565b9150620003b08262000517565b602082019050919050565b620003c68162000479565b82525050565b60006020820190508181036000830152620003e78162000394565b9050919050565b6000602082019050620004056000830184620003bb565b92915050565b600082825260208201905092915050565b6000620004298262000479565b9150620004368362000479565b9250827fffffffffffffffffffffffffffffffffffffffffffffffffffffffffffffffff038211156200046e576200046d620004b9565b5b828201905092915050565b6000819050919050565b600060028204905060018216806200049c57607f821691505b60208210811415620004b357620004b2620004e8565b5b50919050565b7f4e487b7100000000000000000000000000000000000000000000000000000000600052601160045260246000fd5b7f4e487b7100000000000000000000000000000000000000000000000000000000600052602260045260246000fd5b7f45524332303a206d696e7420746f20746865207a65726f206164647265737300600082015250565b611e7580620005506000396000f3fe60806040526004361061011f5760003560e01c80637150d8ae116100a0578063a457c2d711610064578063a457c2d7146103de578063a9059cbb1461041b578063dd62ed3e14610458578063deff30c614610495578063f851a440146104c55761011f565b80637150d8ae1461030957806379c65068146103345780637ff9b5961461035d5780638da5cb5b1461038857806395d89b41146103b35761011f565b8063313ce567116100e7578063313ce5671461021f578063395093511461024a57806342966c681461028757806367d0b649146102b057806370a08231146102cc5761011f565b806306fdde0314610124578063095ea7b31461014f57806312065fe01461018c57806318160ddd146101b757806323b872dd146101e2575b600080fd5b34801561013057600080fd5b506101396104f0565b6040516101469190611714565b60405180910390f35b34801561015b57600080fd5b5061017660048036038101906101719190611423565b610582565b60405161018391906116f9565b60405180910390f35b34801561019857600080fd5b506101a16105a5565b6040516101ae9190611896565b60405180910390f35b3480156101c357600080fd5b506101cc61067e565b6040516101d99190611896565b60405180910390f35b3480156101ee57600080fd5b50610209600480360381019061020491906113d4565b610688565b60405161021691906116f9565b60405180910390f35b34801561022b57600080fd5b506102346106b7565b60405161024191906118b1565b60405180910390f35b34801561025657600080fd5b50610271600480360381019061026c9190611423565b6106c0565b60405161027e91906116f9565b60405180910390f35b34801561029357600080fd5b506102ae60048036038101906102a9919061145f565b6106f7565b005b6102ca60048036038101906102c5919061136f565b610704565b005b3480156102d857600080fd5b506102f360048036038101906102ee9190611346565b61074e565b6040516103009190611896565b60405180910390f35b34801561031557600080fd5b5061031e610796565b60405161032b91906116a7565b60405180910390f35b34801561034057600080fd5b5061035b60048036038101906103569190611423565b6107bc565b005b34801561036957600080fd5b5061037261085a565b60405161037f9190611896565b60405180910390f35b34801561039457600080fd5b5061039d610860565b6040516103aa91906116a7565b60405180910390f35b3480156103bf57600080fd5b506103c8610886565b6040516103d59190611714565b60405180910390f35b3480156103ea57600080fd5b5061040560048036038101906104009190611423565b610918565b60405161041291906116f9565b60405180910390f35b34801561042757600080fd5b50610442600480360381019061043d9190611423565b61098f565b60405161044f91906116f9565b60405180910390f35b34801561046457600080fd5b5061047f600480360381019061047a9190611398565b6109b2565b60405161048c9190611896565b60405180910390f35b6104af60048036038101906104aa9190611346565b610a39565b6040516104bc9190611896565b60405180910390f35b3480156104d157600080fd5b506104da610aab565b6040516104e791906116a7565b60405180910390f35b6060600380546104ff90611a66565b80601f016020809104026020016040519081016040528092919081815260200182805461052b90611a66565b80156105785780601f1061054d57610100808354040283529160200191610578565b820191906000526020600020905b81548152906001019060200180831161055b57829003601f168201915b5050505050905090565b60008061058d610ad1565b905061059a818585610ad9565b600191505092915050565b600080600660009054906101000a900473ffffffffffffffffffffffffffffffffffffffff1673ffffffffffffffffffffffffffffffffffffffff166370a08231600760009054906101000a900473ffffffffffffffffffffffffffffffffffffffff166040518263ffffffff1660e01b815260040161062591906116a7565b60206040518083038186803b15801561063d57600080fd5b505afa158015610651573d6000803e3d6000fd5b505050506040513d601f19601f820116820180604052508101906106759190611488565b90508091505090565b6000600254905090565b600080610693610ad1565b90506106a0858285610ca4565b6106ab858585610d30565b60019150509392505050565b60006012905090565b6000806106cb610ad1565b90506106ec8185856106dd85896109b2565b6106e791906118e8565b610ad9565b600191505092915050565b6107013382610fb1565b50565b8073ffffffffffffffffffffffffffffffffffffffff166108fc349081150290604051600060405180830381858888f1935050505015801561074a573d6000803e3d6000fd5b5050565b60008060008373ffffffffffffffffffffffffffffffffffffffff1673ffffffffffffffffffffffffffffffffffffffff168152602001908152602001600020549050919050565b600860009054906101000a900473ffffffffffffffffffffffffffffffffffffffff1681565b600560009054906101000a900473ffffffffffffffffffffffffffffffffffffffff1673ffffffffffffffffffffffffffffffffffffffff163373ffffffffffffffffffffffffffffffffffffffff161461084c576040517f08c379a0000000000000000000000000000000000000000000000000000000008152600401610843906117d6565b60405180910390fd5b6108568282611188565b5050565b60095481565b600760009054906101000a900473ffffffffffffffffffffffffffffffffffffffff1681565b60606004805461089590611a66565b80601f01602080910402602001604051908101604052809291908181526020018280546108c190611a66565b801561090e5780601f106108e35761010080835404028352916020019161090e565b820191906000526020600020905b8154815290600101906020018083116108f157829003601f168201915b5050505050905090565b600080610923610ad1565b9050600061093182866109b2565b905083811015610976576040517f08c379a000000000000000000000000000000000000000000000000000000000815260040161096d90611856565b60405180910390fd5b6109838286868403610ad9565b60019250505092915050565b60008061099a610ad1565b90506109a7818585610d30565b600191505092915050565b6000600160008473ffffffffffffffffffffffffffffffffffffffff1673ffffffffffffffffffffffffffffffffffffffff16815260200190815260200160002060008373ffffffffffffffffffffffffffffffffffffffff1673ffffffffffffffffffffffffffffffffffffffff16815260200190815260200160002054905092915050565b6000806064600954610a4b919061193e565b9050600068056bc75e2d631000009050610a65848261098f565b507f0a37b72bb67eee30e09084cf386f8a17817c57f620c3ab95fb25d6a20356ec77848383604051610a99939291906116c2565b60405180910390a18092505050919050565b600560009054906101000a900473ffffffffffffffffffffffffffffffffffffffff1681565b600033905090565b600073ffffffffffffffffffffffffffffffffffffffff168373ffffffffffffffffffffffffffffffffffffffff161415610b49576040517f08c379a0000000000000000000000000000000000000000000000000000000008152600401610b4090611836565b60405180910390fd5b600073ffffffffffffffffffffffffffffffffffffffff168273ffffffffffffffffffffffffffffffffffffffff161415610bb9576040517f08c379a0000000000000000000000000000000000000000000000000000000008152600401610bb090611776565b60405180910390fd5b80600160008573ffffffffffffffffffffffffffffffffffffffff1673ffffffffffffffffffffffffffffffffffffffff16815260200190815260200160002060008473ffffffffffffffffffffffffffffffffffffffff1673ffffffffffffffffffffffffffffffffffffffff168152602001908152602001600020819055508173ffffffffffffffffffffffffffffffffffffffff168373ffffffffffffffffffffffffffffffffffffffff167f8c5be1e5ebec7d5bd14f71427d1e84f3dd0314c0f7b2291e5b200ac8c7c3b92583604051610c979190611896565b60405180910390a3505050565b6000610cb084846109b2565b90507fffffffffffffffffffffffffffffffffffffffffffffffffffffffffffffffff8114610d2a5781811015610d1c576040517f08c379a0000000000000000000000000000000000000000000000000000000008152600401610d1390611796565b60405180910390fd5b610d298484848403610ad9565b5b50505050565b600073ffffffffffffffffffffffffffffffffffffffff168373ffffffffffffffffffffffffffffffffffffffff161415610da0576040517f08c379a0000000000000000000000000000000000000000000000000000000008152600401610d9790611816565b60405180910390fd5b600073ffffffffffffffffffffffffffffffffffffffff168273ffffffffffffffffffffffffffffffffffffffff161415610e10576040517f08c379a0000000000000000000000000000000000000000000000000000000008152600401610e0790611736565b60405180910390fd5b610e1b8383836112e8565b60008060008573ffffffffffffffffffffffffffffffffffffffff1673ffffffffffffffffffffffffffffffffffffffff16815260200190815260200160002054905081811015610ea1576040517f08c379a0000000000000000000000000000000000000000000000000000000008152600401610e98906117b6565b60405180910390fd5b8181036000808673ffffffffffffffffffffffffffffffffffffffff1673ffffffffffffffffffffffffffffffffffffffff16815260200190815260200160002081905550816000808573ffffffffffffffffffffffffffffffffffffffff1673ffffffffffffffffffffffffffffffffffffffff1681526020019081526020016000206000828254610f3491906118e8565b925050819055508273ffffffffffffffffffffffffffffffffffffffff168473ffffffffffffffffffffffffffffffffffffffff167fddf252ad1be2c89b69c2b068fc378daa952ba7f163c4a11628f55a4df523b3ef84604051610f989190611896565b60405180910390a3610fab8484846112ed565b50505050565b600073ffffffffffffffffffffffffffffffffffffffff168273ffffffffffffffffffffffffffffffffffffffff161415611021576040517f08c379a0000000000000000000000000000000000000000000000000000000008152600401611018906117f6565b60405180910390fd5b61102d826000836112e8565b60008060008473ffffffffffffffffffffffffffffffffffffffff1673ffffffffffffffffffffffffffffffffffffffff168152602001908152602001600020549050818110156110b3576040517f08c379a00000000000000000000000000000000000000000000000000000000081526004016110aa90611756565b60405180910390fd5b8181036000808573ffffffffffffffffffffffffffffffffffffffff1673ffffffffffffffffffffffffffffffffffffffff16815260200190815260200160002081905550816002600082825461110a9190611998565b92505081905550600073ffffffffffffffffffffffffffffffffffffffff168373ffffffffffffffffffffffffffffffffffffffff167fddf252ad1be2c89b69c2b068fc378daa952ba7f163c4a11628f55a4df523b3ef8460405161116f9190611896565b60405180910390a3611183836000846112ed565b505050565b600073ffffffffffffffffffffffffffffffffffffffff168273ffffffffffffffffffffffffffffffffffffffff1614156111f8576040517f08c379a00000000000000000000000000000000000000000000000000000000081526004016111ef90611876565b60405180910390fd5b611204600083836112e8565b806002600082825461121691906118e8565b92505081905550806000808473ffffffffffffffffffffffffffffffffffffffff1673ffffffffffffffffffffffffffffffffffffffff168152602001908152602001600020600082825461126b91906118e8565b925050819055508173ffffffffffffffffffffffffffffffffffffffff16600073ffffffffffffffffffffffffffffffffffffffff167fddf252ad1be2c89b69c2b068fc378daa952ba7f163c4a11628f55a4df523b3ef836040516112d09190611896565b60405180910390a36112e4600083836112ed565b5050565b505050565b505050565b60008135905061130181611dfa565b92915050565b60008135905061131681611e11565b92915050565b60008135905061132b81611e28565b92915050565b60008151905061134081611e28565b92915050565b60006020828403121561135857600080fd5b6000611366848285016112f2565b91505092915050565b60006020828403121561138157600080fd5b600061138f84828501611307565b91505092915050565b600080604083850312156113ab57600080fd5b60006113b9858286016112f2565b92505060206113ca858286016112f2565b9150509250929050565b6000806000606084860312156113e957600080fd5b60006113f7868287016112f2565b9350506020611408868287016112f2565b92505060406114198682870161131c565b9150509250925092565b6000806040838503121561143657600080fd5b6000611444858286016112f2565b92505060206114558582860161131c565b9150509250929050565b60006020828403121561147157600080fd5b600061147f8482850161131c565b91505092915050565b60006020828403121561149a57600080fd5b60006114a884828501611331565b91505092915050565b6114ba816119cc565b82525050565b6114c9816119f0565b82525050565b60006114da826118cc565b6114e481856118d7565b93506114f4818560208601611a33565b6114fd81611af6565b840191505092915050565b60006115156023836118d7565b915061152082611b07565b604082019050919050565b60006115386022836118d7565b915061154382611b56565b604082019050919050565b600061155b6022836118d7565b915061156682611ba5565b604082019050919050565b600061157e601d836118d7565b915061158982611bf4565b602082019050919050565b60006115a16026836118d7565b91506115ac82611c1d565b604082019050919050565b60006115c4600a836118d7565b91506115cf82611c6c565b602082019050919050565b60006115e76021836118d7565b91506115f282611c95565b604082019050919050565b600061160a6025836118d7565b915061161582611ce4565b604082019050919050565b600061162d6024836118d7565b915061163882611d33565b604082019050919050565b60006116506025836118d7565b915061165b82611d82565b604082019050919050565b6000611673601f836118d7565b915061167e82611dd1565b602082019050919050565b61169281611a1c565b82525050565b6116a181611a26565b82525050565b60006020820190506116bc60008301846114b1565b92915050565b60006060820190506116d760008301866114b1565b6116e46020830185611689565b6116f16040830184611689565b949350505050565b600060208201905061170e60008301846114c0565b92915050565b6000602082019050818103600083015261172e81846114cf565b905092915050565b6000602082019050818103600083015261174f81611508565b9050919050565b6000602082019050818103600083015261176f8161152b565b9050919050565b6000602082019050818103600083015261178f8161154e565b9050919050565b600060208201905081810360008301526117af81611571565b9050919050565b600060208201905081810360008301526117cf81611594565b9050919050565b600060208201905081810360008301526117ef816115b7565b9050919050565b6000602082019050818103600083015261180f816115da565b9050919050565b6000602082019050818103600083015261182f816115fd565b9050919050565b6000602082019050818103600083015261184f81611620565b9050919050565b6000602082019050818103600083015261186f81611643565b9050919050565b6000602082019050818103600083015261188f81611666565b9050919050565b60006020820190506118ab6000830184611689565b92915050565b60006020820190506118c66000830184611698565b92915050565b600081519050919050565b600082825260208201905092915050565b60006118f382611a1c565b91506118fe83611a1c565b9250827fffffffffffffffffffffffffffffffffffffffffffffffffffffffffffffffff0382111561193357611932611a98565b5b828201905092915050565b600061194982611a1c565b915061195483611a1c565b9250817fffffffffffffffffffffffffffffffffffffffffffffffffffffffffffffffff048311821515161561198d5761198c611a98565b5b828202905092915050565b60006119a382611a1c565b91506119ae83611a1c565b9250828210156119c1576119c0611a98565b5b828203905092915050565b60006119d7826119fc565b9050919050565b60006119e9826119fc565b9050919050565b60008115159050919050565b600073ffffffffffffffffffffffffffffffffffffffff82169050919050565b6000819050919050565b600060ff82169050919050565b60005b83811015611a51578082015181840152602081019050611a36565b83811115611a60576000848401525b50505050565b60006002820490506001821680611a7e57607f821691505b60208210811415611a9257611a91611ac7565b5b50919050565b7f4e487b7100000000000000000000000000000000000000000000000000000000600052601160045260246000fd5b7f4e487b7100000000000000000000000000000000000000000000000000000000600052602260045260246000fd5b6000601f19601f8301169050919050565b7f45524332303a207472616e7366657220746f20746865207a65726f206164647260008201527f6573730000000000000000000000000000000000000000000000000000000000602082015250565b7f45524332303a206275726e20616d6f756e7420657863656564732062616c616e60008201527f6365000000000000000000000000000000000000000000000000000000000000602082015250565b7f45524332303a20617070726f766520746f20746865207a65726f20616464726560008201527f7373000000000000000000000000000000000000000000000000000000000000602082015250565b7f45524332303a20696e73756666696369656e7420616c6c6f77616e6365000000600082015250565b7f45524332303a207472616e7366657220616d6f756e742065786365656473206260008201527f616c616e63650000000000000000000000000000000000000000000000000000602082015250565b7f6f6e6c792061646d696e00000000000000000000000000000000000000000000600082015250565b7f45524332303a206275726e2066726f6d20746865207a65726f2061646472657360008201527f7300000000000000000000000000000000000000000000000000000000000000602082015250565b7f45524332303a207472616e736665722066726f6d20746865207a65726f20616460008201527f6472657373000000000000000000000000000000000000000000000000000000602082015250565b7f45524332303a20617070726f76652066726f6d20746865207a65726f2061646460008201527f7265737300000000000000000000000000000000000000000000000000000000602082015250565b7f45524332303a2064656372656173656420616c6c6f77616e63652062656c6f7760008201527f207a65726f000000000000000000000000000000000000000000000000000000602082015250565b7f45524332303a206d696e7420746f20746865207a65726f206164647265737300600082015250565b611e03816119cc565b8114611e0e57600080fd5b50565b611e1a816119de565b8114611e2557600080fd5b50565b611e3181611a1c565b8114611e3c57600080fd5b5056fea2646970667358221220495a25b52672226f4fb5d7e05695ee5c8fbd664fedb6de9b2031a8d41fb6061164736f6c63430008010033",
  "linkReferences": {},
  "deployedLinkReferences": {}
}