{
	"_format": "hh-sol-artifact-1",
	"contractName": "BlockTune",
	"sourceName": "contracts/BlockTune.sol",
	"abi": [
		{
			"inputs": [],
			"stateMutability": "nonpayable",
			"type": "constructor"
		},
		{
			"anonymous": false,
			"inputs": [
				{
					"indexed": false,
					"internalType": "uint256",
					"name": "songID",
					"type": "uint256"
				},
				{
					"indexed": false,
					"internalType": "string",
					"name": "songName",
					"type": "string"
				},
				{
					"indexed": false,
					"internalType": "string",
					"name": "songImage",
					"type": "string"
				},
				{
					"indexed": false,
					"internalType": "string",
					"name": "musicHash",
					"type": "string"
				},
				{
					"indexed": false,
					"internalType": "address payable",
					"name": "songArtist",
					"type": "address"
				}
			],
			"name": "SongCreated",
			"type": "event"
		},
		{
			"inputs": [
				{
					"internalType": "uint256",
					"name": "_songID",
					"type": "uint256"
				}
			],
			"name": "getSong",
			"outputs": [
				{
					"components": [
						{
							"internalType": "uint256",
							"name": "songID",
							"type": "uint256"
						},
						{
							"internalType": "string",
							"name": "songName",
							"type": "string"
						},
						{
							"internalType": "string",
							"name": "songImage",
							"type": "string"
						},
						{
							"internalType": "string",
							"name": "musicHash",
							"type": "string"
						},
						{
							"internalType": "address payable",
							"name": "songArtist",
							"type": "address"
						}
					],
					"internalType": "struct BlockTune.Song",
					"name": "",
					"type": "tuple"
				}
			],
			"stateMutability": "view",
			"type": "function"
		},
		{
			"inputs": [],
			"name": "owner",
			"outputs": [
				{
					"internalType": "address",
					"name": "",
					"type": "address"
				}
			],
			"stateMutability": "view",
			"type": "function"
		},
		{
			"inputs": [
				{
					"internalType": "uint256",
					"name": "",
					"type": "uint256"
				}
			],
			"name": "songIds",
			"outputs": [
				{
					"internalType": "uint256",
					"name": "",
					"type": "uint256"
				}
			],
			"stateMutability": "view",
			"type": "function"
		},
		{
			"inputs": [
				{
					"internalType": "uint256",
					"name": "",
					"type": "uint256"
				}
			],
			"name": "songs",
			"outputs": [
				{
					"internalType": "uint256",
					"name": "songID",
					"type": "uint256"
				},
				{
					"internalType": "string",
					"name": "songName",
					"type": "string"
				},
				{
					"internalType": "string",
					"name": "songImage",
					"type": "string"
				},
				{
					"internalType": "string",
					"name": "musicHash",
					"type": "string"
				},
				{
					"internalType": "address payable",
					"name": "songArtist",
					"type": "address"
				}
			],
			"stateMutability": "view",
			"type": "function"
		},
		{
			"inputs": [
				{
					"internalType": "string",
					"name": "songName",
					"type": "string"
				},
				{
					"internalType": "address payable",
					"name": "songArtist",
					"type": "address"
				},
				{
					"internalType": "string",
					"name": "musicHash",
					"type": "string"
				},
				{
					"internalType": "string",
					"name": "songImage",
					"type": "string"
				}
			],
			"name": "storeSong",
			"outputs": [],
			"stateMutability": "nonpayable",
			"type": "function"
		}
	],
	"bytecode": "0x608060405234801561001057600080fd5b506000600181905580546001600160a01b03191633179055610a04806100376000396000f3fe608060405234801561001057600080fd5b50600436106100575760003560e01c8063304cff301461005c57806342acaa66146100895780637e5b94e1146100a95780638da5cb5b146100c9578063e7cb9d7e146100de575b600080fd5b61006f61006a3660046107f8565b6100f3565b6040516100809594939291906108fc565b60405180910390f35b61009c6100973660046107f8565b6102c3565b604051610080919061086f565b6100bc6100b73660046107f8565b6104c4565b60405161008091906108f3565b6100d16104e5565b604051610080919061085b565b6100f16100ec366004610754565b6104f4565b005b6002602052600090815260409020805460018201805491929161011590610956565b80601f016020809104026020016040519081016040528092919081815260200182805461014190610956565b801561018e5780601f106101635761010080835404028352916020019161018e565b820191906000526020600020905b81548152906001019060200180831161017157829003601f168201915b5050505050908060020180546101a390610956565b80601f01602080910402602001604051908101604052809291908181526020018280546101cf90610956565b801561021c5780601f106101f15761010080835404028352916020019161021c565b820191906000526020600020905b8154815290600101906020018083116101ff57829003601f168201915b50505050509080600301805461023190610956565b80601f016020809104026020016040519081016040528092919081815260200182805461025d90610956565b80156102aa5780601f1061027f576101008083540402835291602001916102aa565b820191906000526020600020905b81548152906001019060200180831161028d57829003601f168201915b505050600490930154919250506001600160a01b031685565b6102cb6105fc565b600260008381526020019081526020016000206040518060a00160405290816000820154815260200160018201805461030390610956565b80601f016020809104026020016040519081016040528092919081815260200182805461032f90610956565b801561037c5780601f106103515761010080835404028352916020019161037c565b820191906000526020600020905b81548152906001019060200180831161035f57829003601f168201915b5050505050815260200160028201805461039590610956565b80601f01602080910402602001604051908101604052809291908181526020018280546103c190610956565b801561040e5780601f106103e35761010080835404028352916020019161040e565b820191906000526020600020905b8154815290600101906020018083116103f157829003601f168201915b5050505050815260200160038201805461042790610956565b80601f016020809104026020016040519081016040528092919081815260200182805461045390610956565b80156104a05780601f10610475576101008083540402835291602001916104a0565b820191906000526020600020905b81548152906001019060200180831161048357829003601f168201915b5050509183525050600491909101546001600160a01b031660209091015292915050565b600381815481106104d457600080fd5b600091825260209091200154905081565b6000546001600160a01b031681565b6001805460009081526002602090815260409091208651909261051e929084019190880190610634565b506004810180546001600160a01b0319166001600160a01b03861617905582516105519060038301906020860190610634565b5081516105679060028301906020850190610634565b50600180548083556003805492830181556000527fc2575a0e9e593c00f959f8c92f12db2869c3395a3b0502d05e2516446f71f85b9091018190556040517f2e8987dc77e1092f79b097dbcebf2b04689e4e9f4028a627cac06a82d183c7e4916105d8918890869088908a906108fc565b60405180910390a1600180549060006105f083610991565b91905055505050505050565b6040518060a001604052806000815260200160608152602001606081526020016060815260200160006001600160a01b031681525090565b82805461064090610956565b90600052602060002090601f01602090048101928261066257600085556106a8565b82601f1061067b57805160ff19168380011785556106a8565b828001600101855582156106a8579182015b828111156106a857825182559160200191906001019061068d565b506106b49291506106b8565b5090565b5b808211156106b457600081556001016106b9565b600082601f8301126106dd578081fd5b813567ffffffffffffffff808211156106f8576106f86109b8565b604051601f8301601f19908116603f01168101908282118183101715610720576107206109b8565b81604052838152866020858801011115610738578485fd5b8360208701602083013792830160200193909352509392505050565b60008060008060808587031215610769578384fd5b843567ffffffffffffffff80821115610780578586fd5b61078c888389016106cd565b9550602087013591506001600160a01b03821682146107a9578485fd5b909350604086013590808211156107be578384fd5b6107ca888389016106cd565b935060608701359150808211156107df578283fd5b506107ec878288016106cd565b91505092959194509250565b600060208284031215610809578081fd5b5035919050565b60008151808452815b8181101561083557602081850181015186830182015201610819565b818111156108465782602083870101525b50601f01601f19169290920160200192915050565b6001600160a01b0391909116815260200190565b60006020825282516020830152602083015160a0604084015261089560c0840182610810565b90506040840151601f19808584030160608601526108b38383610810565b92506060860151915080858403016080860152506108d18282610810565b608095909501516001600160a01b031660a09490940193909352509192915050565b90815260200190565b600086825260a0602083015261091560a0830187610810565b82810360408401526109278187610810565b9050828103606084015261093b8186610810565b91505060018060a01b03831660808301529695505050505050565b60028104600182168061096a57607f821691505b6020821081141561098b57634e487b7160e01b600052602260045260246000fd5b50919050565b60006000198214156109b157634e487b7160e01b81526011600452602481fd5b5060010190565b634e487b7160e01b600052604160045260246000fdfea26469706673582212203cc783c1bfd33535480733290c8852196da0ff9f95248fdd6eb708d28ee82e9f64736f6c63430008010033",
	"linkReferences": {},
	"deployedLinkReferences": {}
}