{
  "_format": "hh-sol-artifact-1",
  "contractName": "BlockTune",
  "sourceName": "contracts/BlockTune.sol",
  "abi": [
    {
      "inputs": [],
      "stateMutability": "nonpayable",
      "type": "constructor"
    },
    {
      "anonymous": false,
      "inputs": [
        {
          "indexed": false,
          "internalType": "uint256",
          "name": "songID",
          "type": "uint256"
        },
        {
          "indexed": false,
          "internalType": "string",
          "name": "songName",
          "type": "string"
        },
        {
          "indexed": false,
          "internalType": "string",
          "name": "songImage",
          "type": "string"
        },
        {
          "indexed": false,
          "internalType": "string",
          "name": "musicHash",
          "type": "string"
        },
        {
          "indexed": false,
          "internalType": "string",
          "name": "artist",
          "type": "string"
        },
        {
          "indexed": false,
          "internalType": "address payable",
          "name": "songArtist",
          "type": "address"
        }
      ],
      "name": "SongCreated",
      "type": "event"
    },
    {
      "inputs": [],
      "name": "getCount",
      "outputs": [
        {
          "internalType": "uint256",
          "name": "",
          "type": "uint256"
        }
      ],
      "stateMutability": "view",
      "type": "function"
    },
    {
      "inputs": [],
      "name": "getMySong",
      "outputs": [
        {
          "components": [
            {
              "internalType": "uint256",
              "name": "songID",
              "type": "uint256"
            },
            {
              "internalType": "string",
              "name": "songName",
              "type": "string"
            },
            {
              "internalType": "string",
              "name": "songImage",
              "type": "string"
            },
            {
              "internalType": "string",
              "name": "musicHash",
              "type": "string"
            },
            {
              "internalType": "string",
              "name": "artist",
              "type": "string"
            },
            {
              "internalType": "address payable",
              "name": "songArtist",
              "type": "address"
            }
          ],
          "internalType": "struct BlockTune.Song[]",
          "name": "",
          "type": "tuple[]"
        }
      ],
      "stateMutability": "view",
      "type": "function"
    },
    {
      "inputs": [],
      "name": "getOtherSong",
      "outputs": [
        {
          "components": [
            {
              "internalType": "uint256",
              "name": "songID",
              "type": "uint256"
            },
            {
              "internalType": "string",
              "name": "songName",
              "type": "string"
            },
            {
              "internalType": "string",
              "name": "songImage",
              "type": "string"
            },
            {
              "internalType": "string",
              "name": "musicHash",
              "type": "string"
            },
            {
              "internalType": "string",
              "name": "artist",
              "type": "string"
            },
            {
              "internalType": "address payable",
              "name": "songArtist",
              "type": "address"
            }
          ],
          "internalType": "struct BlockTune.Song[]",
          "name": "",
          "type": "tuple[]"
        }
      ],
      "stateMutability": "view",
      "type": "function"
    },
    {
      "inputs": [
        {
          "internalType": "uint256",
          "name": "_songID",
          "type": "uint256"
        }
      ],
      "name": "getSong",
      "outputs": [
        {
          "components": [
            {
              "internalType": "uint256",
              "name": "songID",
              "type": "uint256"
            },
            {
              "internalType": "string",
              "name": "songName",
              "type": "string"
            },
            {
              "internalType": "string",
              "name": "songImage",
              "type": "string"
            },
            {
              "internalType": "string",
              "name": "musicHash",
              "type": "string"
            },
            {
              "internalType": "string",
              "name": "artist",
              "type": "string"
            },
            {
              "internalType": "address payable",
              "name": "songArtist",
              "type": "address"
            }
          ],
          "internalType": "struct BlockTune.Song",
          "name": "",
          "type": "tuple"
        }
      ],
      "stateMutability": "view",
      "type": "function"
    },
    {
      "inputs": [],
      "name": "owner",
      "outputs": [
        {
          "internalType": "address",
          "name": "",
          "type": "address"
        }
      ],
      "stateMutability": "view",
      "type": "function"
    },
    {
      "inputs": [
        {
          "internalType": "uint256",
          "name": "",
          "type": "uint256"
        }
      ],
      "name": "songIds",
      "outputs": [
        {
          "internalType": "uint256",
          "name": "",
          "type": "uint256"
        }
      ],
      "stateMutability": "view",
      "type": "function"
    },
    {
      "inputs": [
        {
          "internalType": "uint256",
          "name": "",
          "type": "uint256"
        }
      ],
      "name": "songs",
      "outputs": [
        {
          "internalType": "uint256",
          "name": "songID",
          "type": "uint256"
        },
        {
          "internalType": "string",
          "name": "songName",
          "type": "string"
        },
        {
          "internalType": "string",
          "name": "songImage",
          "type": "string"
        },
        {
          "internalType": "string",
          "name": "musicHash",
          "type": "string"
        },
        {
          "internalType": "string",
          "name": "artist",
          "type": "string"
        },
        {
          "internalType": "address payable",
          "name": "songArtist",
          "type": "address"
        }
      ],
      "stateMutability": "view",
      "type": "function"
    },
    {
      "inputs": [
        {
          "internalType": "string",
          "name": "songName",
          "type": "string"
        },
        {
          "internalType": "address payable",
          "name": "songArtist",
          "type": "address"
        },
        {
          "internalType": "string",
          "name": "musicHash",
          "type": "string"
        },
        {
          "internalType": "string",
          "name": "artist",
          "type": "string"
        },
        {
          "internalType": "string",
          "name": "songImage",
          "type": "string"
        }
      ],
      "name": "storeSong",
      "outputs": [],
      "stateMutability": "nonpayable",
      "type": "function"
    }
  ],
  "bytecode": "0x608060405234801561001057600080fd5b506114d2806100206000396000f3fe608060405234801561001057600080fd5b50600436106100885760003560e01c80638da5cb5b1161005b5780638da5cb5b14610111578063a87d942c1461013c578063b3d718c414610144578063dcb88e551461015957600080fd5b8063304cff301461008d5780633ab55194146100bb57806342acaa66146100d05780637e5b94e1146100f0575b600080fd5b6100a061009b36600461124c565b610161565b6040516100b2969594939291906113b5565b60405180910390f35b6100ce6100c9366004611184565b6103bf565b005b6100e36100de36600461124c565b6104e0565b6040516100b2919061139b565b6101036100fe36600461124c565b610773565b6040519081526020016100b2565b600054610124906001600160a01b031681565b6040516001600160a01b0390911681526020016100b2565b600354610103565b61014c610794565b6040516100b2919061133a565b61014c610be0565b6002602052600090815260409020805460018201805491929161018390611424565b80601f01602080910402602001604051908101604052809291908181526020018280546101af90611424565b80156101fc5780601f106101d1576101008083540402835291602001916101fc565b820191906000526020600020905b8154815290600101906020018083116101df57829003601f168201915b50505050509080600201805461021190611424565b80601f016020809104026020016040519081016040528092919081815260200182805461023d90611424565b801561028a5780601f1061025f5761010080835404028352916020019161028a565b820191906000526020600020905b81548152906001019060200180831161026d57829003601f168201915b50505050509080600301805461029f90611424565b80601f01602080910402602001604051908101604052809291908181526020018280546102cb90611424565b80156103185780601f106102ed57610100808354040283529160200191610318565b820191906000526020600020905b8154815290600101906020018083116102fb57829003601f168201915b50505050509080600401805461032d90611424565b80601f016020809104026020016040519081016040528092919081815260200182805461035990611424565b80156103a65780601f1061037b576101008083540402835291602001916103a6565b820191906000526020600020905b81548152906001019060200180831161038957829003601f168201915b505050600590930154919250506001600160a01b031686565b600180546000908152600260209081526040909120875190926103e9929084019190890190611025565b506005810180546001600160a01b0319166001600160a01b038716179055835161041c9060038301906020870190611025565b5081516104329060028301906020850190611025565b5082516104489060048301906020860190611025565b50600180548083556003805492830181556000527fc2575a0e9e593c00f959f8c92f12db2869c3395a3b0502d05e2516446f71f85b9091018190556040517f126f01673cbbc543464bb63aa1cd9720320183580fcf3e5f618f46cd54ff41e1916104bb9189908690899089908c906113b5565b60405180910390a1600180549060006104d38361145f565b9190505550505050505050565b6104e86110a9565b600260008381526020019081526020016000206040518060c00160405290816000820154815260200160018201805461052090611424565b80601f016020809104026020016040519081016040528092919081815260200182805461054c90611424565b80156105995780601f1061056e57610100808354040283529160200191610599565b820191906000526020600020905b81548152906001019060200180831161057c57829003601f168201915b505050505081526020016002820180546105b290611424565b80601f01602080910402602001604051908101604052809291908181526020018280546105de90611424565b801561062b5780601f106106005761010080835404028352916020019161062b565b820191906000526020600020905b81548152906001019060200180831161060e57829003601f168201915b5050505050815260200160038201805461064490611424565b80601f016020809104026020016040519081016040528092919081815260200182805461067090611424565b80156106bd5780601f10610692576101008083540402835291602001916106bd565b820191906000526020600020905b8154815290600101906020018083116106a057829003601f168201915b505050505081526020016004820180546106d690611424565b80601f016020809104026020016040519081016040528092919081815260200182805461070290611424565b801561074f5780601f106107245761010080835404028352916020019161074f565b820191906000526020600020905b81548152906001019060200180831161073257829003601f168201915b5050509183525050600591909101546001600160a01b031660209091015292915050565b6003818154811061078357600080fd5b600091825260209091200154905081565b60035460609060009067ffffffffffffffff8111156107c357634e487b7160e01b600052604160045260246000fd5b6040519080825280602002602001820160405280156107fc57816020015b6107e96110a9565b8152602001906001900390816107e15790505b5090506000805b600354811015610b01576000818152600260205260409020600501546001600160a01b03163314610aef57600260008281526020019081526020016000206040518060c00160405290816000820154815260200160018201805461086690611424565b80601f016020809104026020016040519081016040528092919081815260200182805461089290611424565b80156108df5780601f106108b4576101008083540402835291602001916108df565b820191906000526020600020905b8154815290600101906020018083116108c257829003601f168201915b505050505081526020016002820180546108f890611424565b80601f016020809104026020016040519081016040528092919081815260200182805461092490611424565b80156109715780601f1061094657610100808354040283529160200191610971565b820191906000526020600020905b81548152906001019060200180831161095457829003601f168201915b5050505050815260200160038201805461098a90611424565b80601f01602080910402602001604051908101604052809291908181526020018280546109b690611424565b8015610a035780601f106109d857610100808354040283529160200191610a03565b820191906000526020600020905b8154815290600101906020018083116109e657829003601f168201915b50505050508152602001600482018054610a1c90611424565b80601f0160208091040260200160405190810160405280929190818152602001828054610a4890611424565b8015610a955780601f10610a6a57610100808354040283529160200191610a95565b820191906000526020600020905b815481529060010190602001808311610a7857829003601f168201915b5050509183525050600591909101546001600160a01b03166020909101528351849084908110610ad557634e487b7160e01b600052603260045260246000fd5b60200260200101819052508180610aeb9061145f565b9250505b80610af98161145f565b915050610803565b5060008167ffffffffffffffff811115610b2b57634e487b7160e01b600052604160045260246000fd5b604051908082528060200260200182016040528015610b6457816020015b610b516110a9565b815260200190600190039081610b495790505b50905060005b82811015610bd857838181518110610b9257634e487b7160e01b600052603260045260246000fd5b6020026020010151828281518110610bba57634e487b7160e01b600052603260045260246000fd5b60200260200101819052508080610bd09061145f565b915050610b6a565b509392505050565b60035460609060009067ffffffffffffffff811115610c0f57634e487b7160e01b600052604160045260246000fd5b604051908082528060200260200182016040528015610c4857816020015b610c356110a9565b815260200190600190039081610c2d5790505b5090506000805b600354811015610f4e576000818152600260205260409020600501546001600160a01b0316331415610f3c57600260008281526020019081526020016000206040518060c001604052908160008201548152602001600182018054610cb390611424565b80601f0160208091040260200160405190810160405280929190818152602001828054610cdf90611424565b8015610d2c5780601f10610d0157610100808354040283529160200191610d2c565b820191906000526020600020905b815481529060010190602001808311610d0f57829003601f168201915b50505050508152602001600282018054610d4590611424565b80601f0160208091040260200160405190810160405280929190818152602001828054610d7190611424565b8015610dbe5780601f10610d9357610100808354040283529160200191610dbe565b820191906000526020600020905b815481529060010190602001808311610da157829003601f168201915b50505050508152602001600382018054610dd790611424565b80601f0160208091040260200160405190810160405280929190818152602001828054610e0390611424565b8015610e505780601f10610e2557610100808354040283529160200191610e50565b820191906000526020600020905b815481529060010190602001808311610e3357829003601f168201915b50505050508152602001600482018054610e6990611424565b80601f0160208091040260200160405190810160405280929190818152602001828054610e9590611424565b8015610ee25780601f10610eb757610100808354040283529160200191610ee2565b820191906000526020600020905b815481529060010190602001808311610ec557829003601f168201915b5050509183525050600591909101546001600160a01b03166020909101528351849084908110610f2257634e487b7160e01b600052603260045260246000fd5b60200260200101819052508180610f389061145f565b9250505b80610f468161145f565b915050610c4f565b5060008167ffffffffffffffff811115610f7857634e487b7160e01b600052604160045260246000fd5b604051908082528060200260200182016040528015610fb157816020015b610f9e6110a9565b815260200190600190039081610f965790505b50905060005b82811015610bd857838181518110610fdf57634e487b7160e01b600052603260045260246000fd5b602002602001015182828151811061100757634e487b7160e01b600052603260045260246000fd5b6020026020010181905250808061101d9061145f565b915050610fb7565b82805461103190611424565b90600052602060002090601f0160209004810192826110535760008555611099565b82601f1061106c57805160ff1916838001178555611099565b82800160010185558215611099579182015b8281111561109957825182559160200191906001019061107e565b506110a59291506110e8565b5090565b6040518060c00160405280600081526020016060815260200160608152602001606081526020016060815260200160006001600160a01b031681525090565b5b808211156110a557600081556001016110e9565b600082601f83011261110d578081fd5b813567ffffffffffffffff8082111561112857611128611486565b604051601f8301601f19908116603f0116810190828211818310171561115057611150611486565b81604052838152866020858801011115611168578485fd5b8360208701602083013792830160200193909352509392505050565b600080600080600060a0868803121561119b578081fd5b853567ffffffffffffffff808211156111b2578283fd5b6111be89838a016110fd565b9650602088013591506001600160a01b03821682146111db578283fd5b909450604087013590808211156111f0578283fd5b6111fc89838a016110fd565b94506060880135915080821115611211578283fd5b61121d89838a016110fd565b93506080880135915080821115611232578283fd5b5061123f888289016110fd565b9150509295509295909350565b60006020828403121561125d578081fd5b5035919050565b60008151808452815b818110156112895760208185018101518683018201520161126d565b8181111561129a5782602083870101525b50601f01601f19169290920160200192915050565b805182526000602082015160c060208501526112ce60c0850182611264565b9050604083015184820360408601526112e78282611264565b915050606083015184820360608601526113018282611264565b9150506080830151848203608086015261131b8282611264565b60a0948501516001600160a01b03169590940194909452509092915050565b6000602080830181845280855180835260408601915060408160051b8701019250838701855b8281101561138e57603f1988860301845261137c8583516112af565b94509285019290850190600101611360565b5092979650505050505050565b6020815260006113ae60208301846112af565b9392505050565b86815260c0602082015260006113ce60c0830188611264565b82810360408401526113e08188611264565b905082810360608401526113f48187611264565b905082810360808401526114088186611264565b91505060018060a01b03831660a0830152979650505050505050565b600181811c9082168061143857607f821691505b6020821081141561145957634e487b7160e01b600052602260045260246000fd5b50919050565b600060001982141561147f57634e487b7160e01b81526011600452602481fd5b5060010190565b634e487b7160e01b600052604160045260246000fdfea2646970667358221220822eb9f6025e8b29403edf0de16aa7ebbc4cf2af337df1e85ecbd8b38c9493bd64736f6c63430008040033",
  "linkReferences": {},
  "deployedLinkReferences": {}
}