{
  "_format": "hh-sol-artifact-1",
  "contractName": "BlockTune",
  "sourceName": "contracts/BlockTune.sol",
  "abi": [
    {
      "inputs": [],
      "stateMutability": "nonpayable",
      "type": "constructor"
    },
    {
      "anonymous": false,
      "inputs": [
        {
          "indexed": false,
          "internalType": "uint256",
          "name": "songID",
          "type": "uint256"
        },
        {
          "indexed": false,
          "internalType": "string",
          "name": "songName",
          "type": "string"
        },
        {
          "indexed": false,
          "internalType": "string",
          "name": "songImage",
          "type": "string"
        },
        {
          "indexed": false,
          "internalType": "string",
          "name": "musicHash",
          "type": "string"
        },
        {
          "indexed": false,
          "internalType": "address payable",
          "name": "songArtist",
          "type": "address"
        }
      ],
      "name": "SongCreated",
      "type": "event"
    },
    {
      "inputs": [
        {
          "internalType": "uint256",
          "name": "_songID",
          "type": "uint256"
        }
      ],
      "name": "getSong",
      "outputs": [
        {
          "components": [
            {
              "internalType": "uint256",
              "name": "songID",
              "type": "uint256"
            },
            {
              "internalType": "string",
              "name": "songName",
              "type": "string"
            },
            {
              "internalType": "string",
              "name": "songImage",
              "type": "string"
            },
            {
              "internalType": "string",
              "name": "musicHash",
              "type": "string"
            },
            {
              "internalType": "address payable",
              "name": "songArtist",
              "type": "address"
            }
          ],
          "internalType": "struct BlockTune.Song",
          "name": "",
          "type": "tuple"
        }
      ],
      "stateMutability": "view",
      "type": "function"
    },
    {
      "inputs": [],
      "name": "owner",
      "outputs": [
        {
          "internalType": "address",
          "name": "",
          "type": "address"
        }
      ],
      "stateMutability": "view",
      "type": "function"
    },
    {
      "inputs": [
        {
          "internalType": "uint256",
          "name": "",
          "type": "uint256"
        }
      ],
      "name": "songIds",
      "outputs": [
        {
          "internalType": "uint256",
          "name": "",
          "type": "uint256"
        }
      ],
      "stateMutability": "view",
      "type": "function"
    },
    {
      "inputs": [
        {
          "internalType": "uint256",
          "name": "",
          "type": "uint256"
        }
      ],
      "name": "songs",
      "outputs": [
        {
          "internalType": "uint256",
          "name": "songID",
          "type": "uint256"
        },
        {
          "internalType": "string",
          "name": "songName",
          "type": "string"
        },
        {
          "internalType": "string",
          "name": "songImage",
          "type": "string"
        },
        {
          "internalType": "string",
          "name": "musicHash",
          "type": "string"
        },
        {
          "internalType": "address payable",
          "name": "songArtist",
          "type": "address"
        }
      ],
      "stateMutability": "view",
      "type": "function"
    },
    {
      "inputs": [
        {
          "internalType": "string",
          "name": "songName",
          "type": "string"
        },
        {
          "internalType": "address payable",
          "name": "songArtist",
          "type": "address"
        },
        {
          "internalType": "string",
          "name": "musicHash",
          "type": "string"
        },
        {
          "internalType": "string",
          "name": "songImage",
          "type": "string"
        }
      ],
      "name": "storeSong",
      "outputs": [],
      "stateMutability": "nonpayable",
      "type": "function"
    }
  ],
  "bytecode": "0x608060405234801561001057600080fd5b506000600181905550336000806101000a81548173ffffffffffffffffffffffffffffffffffffffff021916908373ffffffffffffffffffffffffffffffffffffffff160217905550610df0806100686000396000f3fe608060405234801561001057600080fd5b50600436106100575760003560e01c8063304cff301461005c57806342acaa66146100905780637e5b94e1146100c05780638da5cb5b146100f0578063e7cb9d7e1461010e575b600080fd5b61007660048036038101906100719190610905565b61012a565b604051610087959493929190610ac7565b60405180910390f35b6100aa60048036038101906100a59190610905565b610318565b6040516100b79190610a8a565b60405180910390f35b6100da60048036038101906100d59190610905565b61055b565b6040516100e79190610aac565b60405180910390f35b6100f861057f565b6040516101059190610a6f565b60405180910390f35b6101286004803603810190610123919061085a565b6105a3565b005b600260205280600052604060002060009150905080600001549080600101805461015390610c42565b80601f016020809104026020016040519081016040528092919081815260200182805461017f90610c42565b80156101cc5780601f106101a1576101008083540402835291602001916101cc565b820191906000526020600020905b8154815290600101906020018083116101af57829003601f168201915b5050505050908060020180546101e190610c42565b80601f016020809104026020016040519081016040528092919081815260200182805461020d90610c42565b801561025a5780601f1061022f5761010080835404028352916020019161025a565b820191906000526020600020905b81548152906001019060200180831161023d57829003601f168201915b50505050509080600301805461026f90610c42565b80601f016020809104026020016040519081016040528092919081815260200182805461029b90610c42565b80156102e85780601f106102bd576101008083540402835291602001916102e8565b820191906000526020600020905b8154815290600101906020018083116102cb57829003601f168201915b5050505050908060040160009054906101000a900473ffffffffffffffffffffffffffffffffffffffff16905085565b6103206106e0565b600260008381526020019081526020016000206040518060a00160405290816000820154815260200160018201805461035890610c42565b80601f016020809104026020016040519081016040528092919081815260200182805461038490610c42565b80156103d15780601f106103a6576101008083540402835291602001916103d1565b820191906000526020600020905b8154815290600101906020018083116103b457829003601f168201915b505050505081526020016002820180546103ea90610c42565b80601f016020809104026020016040519081016040528092919081815260200182805461041690610c42565b80156104635780601f1061043857610100808354040283529160200191610463565b820191906000526020600020905b81548152906001019060200180831161044657829003601f168201915b5050505050815260200160038201805461047c90610c42565b80601f01602080910402602001604051908101604052809291908181526020018280546104a890610c42565b80156104f55780601f106104ca576101008083540402835291602001916104f5565b820191906000526020600020905b8154815290600101906020018083116104d857829003601f168201915b505050505081526020016004820160009054906101000a900473ffffffffffffffffffffffffffffffffffffffff1673ffffffffffffffffffffffffffffffffffffffff1673ffffffffffffffffffffffffffffffffffffffff16815250509050919050565b6003818154811061056b57600080fd5b906000526020600020016000915090505481565b60008054906101000a900473ffffffffffffffffffffffffffffffffffffffff1681565b60006002600060015481526020019081526020016000209050848160010190805190602001906105d4929190610725565b50838160040160006101000a81548173ffffffffffffffffffffffffffffffffffffffff021916908373ffffffffffffffffffffffffffffffffffffffff16021790555082816003019080519060200190610630929190610725565b5081816002019080519060200190610649929190610725565b506001548160000181905550600360015490806001815401808255809150506001900390600052602060002001600090919091909150557f2e8987dc77e1092f79b097dbcebf2b04689e4e9f4028a627cac06a82d183c7e4600154868486886040516106b9959493929190610ac7565b60405180910390a1600160008154809291906106d490610ca5565b91905055505050505050565b6040518060a0016040528060008152602001606081526020016060815260200160608152602001600073ffffffffffffffffffffffffffffffffffffffff1681525090565b82805461073190610c42565b90600052602060002090601f016020900481019282610753576000855561079a565b82601f1061076c57805160ff191683800117855561079a565b8280016001018555821561079a579182015b8281111561079957825182559160200191906001019061077e565b5b5090506107a791906107ab565b5090565b5b808211156107c45760008160009055506001016107ac565b5090565b60006107db6107d684610b54565b610b2f565b9050828152602081018484840111156107f357600080fd5b6107fe848285610c00565b509392505050565b60008135905061081581610d8c565b92915050565b600082601f83011261082c57600080fd5b813561083c8482602086016107c8565b91505092915050565b60008135905061085481610da3565b92915050565b6000806000806080858703121561087057600080fd5b600085013567ffffffffffffffff81111561088a57600080fd5b6108968782880161081b565b94505060206108a787828801610806565b935050604085013567ffffffffffffffff8111156108c457600080fd5b6108d08782880161081b565b925050606085013567ffffffffffffffff8111156108ed57600080fd5b6108f98782880161081b565b91505092959194509250565b60006020828403121561091757600080fd5b600061092584828501610845565b91505092915050565b61093781610bc4565b82525050565b61094681610bc4565b82525050565b61095581610bb2565b82525050565b600061096682610b85565b6109708185610b90565b9350610980818560208601610c0f565b61098981610d7b565b840191505092915050565b600061099f82610b85565b6109a98185610ba1565b93506109b9818560208601610c0f565b6109c281610d7b565b840191505092915050565b600060a0830160008301516109e56000860182610a51565b50602083015184820360208601526109fd828261095b565b91505060408301518482036040860152610a17828261095b565b91505060608301518482036060860152610a31828261095b565b9150506080830151610a46608086018261092e565b508091505092915050565b610a5a81610bf6565b82525050565b610a6981610bf6565b82525050565b6000602082019050610a84600083018461094c565b92915050565b60006020820190508181036000830152610aa481846109cd565b905092915050565b6000602082019050610ac16000830184610a60565b92915050565b600060a082019050610adc6000830188610a60565b8181036020830152610aee8187610994565b90508181036040830152610b028186610994565b90508181036060830152610b168185610994565b9050610b25608083018461093d565b9695505050505050565b6000610b39610b4a565b9050610b458282610c74565b919050565b6000604051905090565b600067ffffffffffffffff821115610b6f57610b6e610d4c565b5b610b7882610d7b565b9050602081019050919050565b600081519050919050565b600082825260208201905092915050565b600082825260208201905092915050565b6000610bbd82610bd6565b9050919050565b6000610bcf82610bd6565b9050919050565b600073ffffffffffffffffffffffffffffffffffffffff82169050919050565b6000819050919050565b82818337600083830152505050565b60005b83811015610c2d578082015181840152602081019050610c12565b83811115610c3c576000848401525b50505050565b60006002820490506001821680610c5a57607f821691505b60208210811415610c6e57610c6d610d1d565b5b50919050565b610c7d82610d7b565b810181811067ffffffffffffffff82111715610c9c57610c9b610d4c565b5b80604052505050565b6000610cb082610bf6565b91507fffffffffffffffffffffffffffffffffffffffffffffffffffffffffffffffff821415610ce357610ce2610cee565b5b600182019050919050565b7f4e487b7100000000000000000000000000000000000000000000000000000000600052601160045260246000fd5b7f4e487b7100000000000000000000000000000000000000000000000000000000600052602260045260246000fd5b7f4e487b7100000000000000000000000000000000000000000000000000000000600052604160045260246000fd5b6000601f19601f8301169050919050565b610d9581610bc4565b8114610da057600080fd5b50565b610dac81610bf6565b8114610db757600080fd5b5056fea2646970667358221220caed94a002f67ad30af41058facab51ac7297ed8be82452b1b4b9b60943a12f964736f6c63430008010033",
  "linkReferences": {},
  "deployedLinkReferences": {}
}